{
  "contractName": "Pausable",
  "abi": [
    {
      "inputs": [
        {
          "name": "initialState",
          "type": "bool"
        }
      ],
      "payable": false,
      "stateMutability": "nonpayable",
      "type": "constructor"
    },
    {
      "anonymous": false,
      "inputs": [
        {
          "indexed": false,
          "name": "newState",
          "type": "bool"
        },
        {
          "indexed": false,
          "name": "pausedBy",
          "type": "address"
        }
      ],
      "name": "ContractPausedState",
      "type": "event"
    },
    {
      "constant": false,
      "inputs": [
        {
          "name": "newState",
          "type": "bool"
        }
      ],
      "name": "contractPaused",
      "outputs": [],
      "payable": false,
      "stateMutability": "nonpayable",
      "type": "function"
    }
  ],
  "bytecode": "0x608060405234801561001057600080fd5b5060405160208061035b8339810180604052602081101561003057600080fd5b8101908080519060200190929190505050336000806101000a81548173ffffffffffffffffffffffffffffffffffffffff021916908373ffffffffffffffffffffffffffffffffffffffff16021790555080600060146101000a81548160ff021916908315150217905550506102b0806100ab6000396000f3fe608060405260043610610041576000357c0100000000000000000000000000000000000000000000000000000000900463ffffffff168063f378156a14610046575b600080fd5b34801561005257600080fd5b506100816004803603602081101561006957600080fd5b81019080803515159060200190929190505050610083565b005b6000809054906101000a900473ffffffffffffffffffffffffffffffffffffffff1673ffffffffffffffffffffffffffffffffffffffff163373ffffffffffffffffffffffffffffffffffffffff16141515610147576040517f08c379a000000000000000000000000000000000000000000000000000000000815260040180806020018281038252601d8152602001807f52657374726963746564206163636573732c206f776e6572206f6e6c7900000081525060200191505060405180910390fd5b600060149054906101000a900460ff161515811515141515156101f8576040517f08c379a00000000000000000000000000000000000000000000000000000000081526004018080602001828103825260218152602001807f526564756e64616e7420726571756573742c206e6f206368616e6765206d616481526020017f650000000000000000000000000000000000000000000000000000000000000081525060400191505060405180910390fd5b80600060146101000a81548160ff0219169083151502179055507fbd37f1914147a7d43b91adc31da71af05a08f0458e1e8431ef775d08553b8233813360405180831515151581526020018273ffffffffffffffffffffffffffffffffffffffff1673ffffffffffffffffffffffffffffffffffffffff1681526020019250505060405180910390a15056fea165627a7a72305820bc8b94858e7529d0838c5167c08db867401f711efebbe6f2ac9670fd9e185c870029",
  "source": "pragma solidity ^0.5.0;\n\nimport \"./Owner.sol\";\n\ncontract Pausable is Owner {\n    bool private contractPausedState;\n\n    event ContractPausedState (bool newState, address pausedBy);\n    \n    modifier notPaused() {\n        require (!contractPausedState);\n        _;\n    }\n\n    constructor (bool initialState) public {\n        contractPausedState = initialState;\n    }\n\n    function contractPaused(bool newState) public onlyOwner() {\n        require(newState != contractPausedState, \"Redundant request, no change made\");\n        contractPausedState = newState;\n        emit ContractPausedState (newState, msg.sender);\n    }\n}",
  "sourcePath": "/home/vagrant/DAPPS/Splitter/contracts/Pausable.sol",
  "compiler": {
    "name": "solc",
    "version": "0.5.0+commit.1d4f565a.Emscripten.clang"
  },
  "schemaVersion": "3.0.3",
  "updatedAt": "2019-04-25T10:57:34.898Z",
  "devdoc": {
    "methods": {}
  },
  "userdoc": {
    "methods": {}
  }
}