{
  "contractName": "Splitter",
  "abi": [
    {
      "constant": true,
      "inputs": [
        {
          "name": "",
          "type": "address"
        }
      ],
      "name": "balances",
      "outputs": [
        {
          "name": "",
          "type": "uint256"
        }
      ],
      "payable": false,
      "stateMutability": "view",
      "type": "function",
      "signature": "0x27e235e3"
    },
    {
      "constant": false,
      "inputs": [
        {
          "name": "newState",
          "type": "bool"
        }
      ],
      "name": "contractPaused",
      "outputs": [],
      "payable": false,
      "stateMutability": "nonpayable",
      "type": "function",
      "signature": "0xf378156a"
    },
    {
      "inputs": [],
      "payable": false,
      "stateMutability": "nonpayable",
      "type": "constructor",
      "signature": "constructor"
    },
    {
      "anonymous": false,
      "inputs": [
        {
          "indexed": true,
          "name": "sender",
          "type": "address"
        },
        {
          "indexed": false,
          "name": "amount",
          "type": "uint256"
        },
        {
          "indexed": true,
          "name": "recipient1",
          "type": "address"
        },
        {
          "indexed": true,
          "name": "recipient2",
          "type": "address"
        }
      ],
      "name": "LogSplitFunds",
      "type": "event",
      "signature": "0x73603d6b378030ff5ff12bae1564a5d54be44ed02c009a4f1b12f2d5e0346920"
    },
    {
      "anonymous": false,
      "inputs": [
        {
          "indexed": true,
          "name": "receiver",
          "type": "address"
        },
        {
          "indexed": false,
          "name": "amount",
          "type": "uint256"
        }
      ],
      "name": "LogWithdrawalSent",
      "type": "event",
      "signature": "0x827f41d5926409d07eca7e19aaf32185743e73dbecb1e292e3908ae631347c7d"
    },
    {
      "anonymous": false,
      "inputs": [
        {
          "indexed": false,
          "name": "newState",
          "type": "bool"
        },
        {
          "indexed": false,
          "name": "pausedBy",
          "type": "address"
        }
      ],
      "name": "ContractPausedState",
      "type": "event",
      "signature": "0xbd37f1914147a7d43b91adc31da71af05a08f0458e1e8431ef775d08553b8233"
    },
    {
      "constant": false,
      "inputs": [
        {
          "name": "recipient1",
          "type": "address"
        },
        {
          "name": "recipient2",
          "type": "address"
        }
      ],
      "name": "splitFunds",
      "outputs": [],
      "payable": true,
      "stateMutability": "payable",
      "type": "function",
      "signature": "0x2accf2f7"
    },
    {
      "constant": false,
      "inputs": [],
      "name": "withdrawal",
      "outputs": [],
      "payable": false,
      "stateMutability": "nonpayable",
      "type": "function",
      "signature": "0xd4e93292"
    }
  ],
  "bytecode": "0x608060405234801561001057600080fd5b506000336000806101000a81548173ffffffffffffffffffffffffffffffffffffffff021916908373ffffffffffffffffffffffffffffffffffffffff16021790555080600060146101000a81548160ff021916908315150217905550506108438061007d6000396000f3fe608060405260043610610062576000357c0100000000000000000000000000000000000000000000000000000000900463ffffffff16806327e235e3146100675780632accf2f7146100cc578063d4e9329214610130578063f378156a14610147575b600080fd5b34801561007357600080fd5b506100b66004803603602081101561008a57600080fd5b81019080803573ffffffffffffffffffffffffffffffffffffffff169060200190929190505050610184565b6040518082815260200191505060405180910390f35b61012e600480360360408110156100e257600080fd5b81019080803573ffffffffffffffffffffffffffffffffffffffff169060200190929190803573ffffffffffffffffffffffffffffffffffffffff16906020019092919050505061019c565b005b34801561013c57600080fd5b506101456103f1565b005b34801561015357600080fd5b506101826004803603602081101561016a57600080fd5b810190808035151590602001909291905050506105a6565b005b60016020528060005260406000206000915090505481565b600060149054906101000a900460ff161515156101b857600080fd5b60006101ce6002346107a790919063ffffffff16565b905060006101e66002346107d190919063ffffffff16565b905060018111156102455761024381600160003373ffffffffffffffffffffffffffffffffffffffff1673ffffffffffffffffffffffffffffffffffffffff168152602001908152602001600020546107f690919063ffffffff16565b505b61029782600160008773ffffffffffffffffffffffffffffffffffffffff1673ffffffffffffffffffffffffffffffffffffffff168152602001908152602001600020546107f690919063ffffffff16565b600160008673ffffffffffffffffffffffffffffffffffffffff1673ffffffffffffffffffffffffffffffffffffffff1681526020019081526020016000208190555061032c82600160008673ffffffffffffffffffffffffffffffffffffffff1673ffffffffffffffffffffffffffffffffffffffff168152602001908152602001600020546107f690919063ffffffff16565b600160008573ffffffffffffffffffffffffffffffffffffffff1673ffffffffffffffffffffffffffffffffffffffff168152602001908152602001600020819055508273ffffffffffffffffffffffffffffffffffffffff168473ffffffffffffffffffffffffffffffffffffffff163373ffffffffffffffffffffffffffffffffffffffff167f73603d6b378030ff5ff12bae1564a5d54be44ed02c009a4f1b12f2d5e0346920346040518082815260200191505060405180910390a450505050565b600060149054906101000a900460ff1615151561040d57600080fd5b6000600160003373ffffffffffffffffffffffffffffffffffffffff1673ffffffffffffffffffffffffffffffffffffffff1681526020019081526020016000205490506000811115156104c9576040517f08c379a00000000000000000000000000000000000000000000000000000000081526004018080602001828103825260128152602001807f496e73756666696369656e742066756e6473000000000000000000000000000081525060200191505060405180910390fd5b6000600160003373ffffffffffffffffffffffffffffffffffffffff1673ffffffffffffffffffffffffffffffffffffffff168152602001908152602001600020819055503373ffffffffffffffffffffffffffffffffffffffff167f827f41d5926409d07eca7e19aaf32185743e73dbecb1e292e3908ae631347c7d826040518082815260200191505060405180910390a23373ffffffffffffffffffffffffffffffffffffffff166108fc829081150290604051600060405180830381858888f193505050501580156105a2573d6000803e3d6000fd5b5050565b6000809054906101000a900473ffffffffffffffffffffffffffffffffffffffff1673ffffffffffffffffffffffffffffffffffffffff163373ffffffffffffffffffffffffffffffffffffffff1614151561066a576040517f08c379a000000000000000000000000000000000000000000000000000000000815260040180806020018281038252601d8152602001807f52657374726963746564206163636573732c206f776e6572206f6e6c7900000081525060200191505060405180910390fd5b600060149054906101000a900460ff1615158115151415151561071b576040517f08c379a00000000000000000000000000000000000000000000000000000000081526004018080602001828103825260218152602001807f526564756e64616e7420726571756573742c206e6f206368616e6765206d616481526020017f650000000000000000000000000000000000000000000000000000000000000081525060400191505060405180910390fd5b80600060146101000a81548160ff0219169083151502179055507fbd37f1914147a7d43b91adc31da71af05a08f0458e1e8431ef775d08553b8233813360405180831515151581526020018273ffffffffffffffffffffffffffffffffffffffff1673ffffffffffffffffffffffffffffffffffffffff1681526020019250505060405180910390a150565b600080821115156107b757600080fd5b600082848115156107c457fe5b0490508091505092915050565b60008082141515156107e257600080fd5b81838115156107ed57fe5b06905092915050565b600080828401905083811015151561080d57600080fd5b809150509291505056fea165627a7a723058208156fa0e474689aee079fd63f18fd92996a642aa25938aabde1f45259ed65bb50029",
  "source": "pragma solidity ^0.5.0;\n\nimport \"./SafeMath.sol\";\nimport \"./Pausable.sol\";\n\ncontract Splitter is Pausable (false) {\n    using SafeMath for uint;    \n\n    mapping(address => uint) public balances;\n\n    event LogSplitFunds(address indexed sender, uint amount, address indexed recipient1, address indexed recipient2);\n    event LogWithdrawalSent(address indexed receiver, uint amount);\n\n    constructor () public {}\n    \n    function splitFunds(address recipient1, address recipient2) public payable notPaused() {\n        uint half = msg.value.div(2);\n        uint remainder = msg.value.mod(2);\n        if(remainder > 1) balances[msg.sender].add(remainder);\n        balances[recipient1] = balances[recipient1].add(half);\n        balances[recipient2] = balances[recipient2].add(half);\n        emit LogSplitFunds(msg.sender, msg.value, recipient1, recipient2);\n    }\n    \n    function withdrawal() public notPaused() {\n        uint amountDue = balances[msg.sender];\n        require(amountDue > 0, \"Insufficient funds\");\n        balances[msg.sender] = 0;\n        emit LogWithdrawalSent(msg.sender, amountDue);\n        msg.sender.transfer(amountDue);\n    }\n}",
  "sourcePath": "/home/vagrant/DAPPS/Splitter/contracts/Splitter.sol",
  "compiler": {
    "name": "solc",
    "version": "0.5.0+commit.1d4f565a.Emscripten.clang"
  },
  "schemaVersion": "3.0.3",
  "updatedAt": "2019-04-25T11:08:24.874Z",
  "devdoc": {
    "methods": {}
  },
  "userdoc": {
    "methods": {}
  }
}