{
  "contractName": "Splitter",
  "abi": [
    {
      "constant": true,
      "inputs": [],
      "name": "carol",
      "outputs": [
        {
          "name": "",
          "type": "address"
        }
      ],
      "payable": false,
      "stateMutability": "view",
      "type": "function"
    },
    {
      "constant": true,
      "inputs": [],
      "name": "bob",
      "outputs": [
        {
          "name": "",
          "type": "address"
        }
      ],
      "payable": false,
      "stateMutability": "view",
      "type": "function"
    },
    {
      "constant": true,
      "inputs": [],
      "name": "alice",
      "outputs": [
        {
          "name": "",
          "type": "address"
        }
      ],
      "payable": false,
      "stateMutability": "view",
      "type": "function"
    },
    {
      "inputs": [
        {
          "name": "_alice",
          "type": "address"
        },
        {
          "name": "_bob",
          "type": "address"
        },
        {
          "name": "_carol",
          "type": "address"
        }
      ],
      "payable": true,
      "stateMutability": "payable",
      "type": "constructor"
    },
    {
      "anonymous": false,
      "inputs": [
        {
          "indexed": false,
          "name": "receiver",
          "type": "address"
        },
        {
          "indexed": false,
          "name": "amount",
          "type": "uint256"
        }
      ],
      "name": "transferSuccess",
      "type": "event"
    },
    {
      "constant": true,
      "inputs": [
        {
          "name": "account",
          "type": "address"
        }
      ],
      "name": "getBalance",
      "outputs": [
        {
          "name": "",
          "type": "uint256"
        }
      ],
      "payable": false,
      "stateMutability": "view",
      "type": "function"
    },
    {
      "constant": false,
      "inputs": [
        {
          "name": "aliceEther",
          "type": "uint256"
        }
      ],
      "name": "splitterOfEth",
      "outputs": [],
      "payable": true,
      "stateMutability": "payable",
      "type": "function"
    }
  ],
  "bytecode": "0x60806040526040516060806106428339810180604052606081101561002357600080fd5b81019080805190602001909291908051906020019092919080519060200190929190505050826000806101000a81548173ffffffffffffffffffffffffffffffffffffffff021916908373ffffffffffffffffffffffffffffffffffffffff16021790555081600160006101000a81548173ffffffffffffffffffffffffffffffffffffffff021916908373ffffffffffffffffffffffffffffffffffffffff16021790555080600260006101000a81548173ffffffffffffffffffffffffffffffffffffffff021916908373ffffffffffffffffffffffffffffffffffffffff1602179055505050506105268061011c6000396000f3fe60806040526004361061006d576000357c0100000000000000000000000000000000000000000000000000000000900463ffffffff1680638b930f1514610072578063c09cec77146100c9578063d173286814610120578063f8b2cb4f1461014e578063fb47e3a2146101b3575b600080fd5b34801561007e57600080fd5b5061008761020a565b604051808273ffffffffffffffffffffffffffffffffffffffff1673ffffffffffffffffffffffffffffffffffffffff16815260200191505060405180910390f35b3480156100d557600080fd5b506100de610230565b604051808273ffffffffffffffffffffffffffffffffffffffff1673ffffffffffffffffffffffffffffffffffffffff16815260200191505060405180910390f35b61014c6004803603602081101561013657600080fd5b8101908080359060200190929190505050610256565b005b34801561015a57600080fd5b5061019d6004803603602081101561017157600080fd5b81019080803573ffffffffffffffffffffffffffffffffffffffff1690602001909291905050506104be565b6040518082815260200191505060405180910390f35b3480156101bf57600080fd5b506101c86104d5565b604051808273ffffffffffffffffffffffffffffffffffffffff1673ffffffffffffffffffffffffffffffffffffffff16815260200191505060405180910390f35b600260009054906101000a900473ffffffffffffffffffffffffffffffffffffffff1681565b600160009054906101000a900473ffffffffffffffffffffffffffffffffffffffff1681565b6000809054906101000a900473ffffffffffffffffffffffffffffffffffffffff1673ffffffffffffffffffffffffffffffffffffffff163373ffffffffffffffffffffffffffffffffffffffff161415156102b157600080fd5b60006002828115156102bf57fe5b049050600160009054906101000a900473ffffffffffffffffffffffffffffffffffffffff1673ffffffffffffffffffffffffffffffffffffffff166108fc829081150290604051600060405180830381858888f1935050505015801561032a573d6000803e3d6000fd5b507fa27e6dbb19599b1ad50eff1ba2a549c8548a0ddd4e873795a7de7ada6b2f4ecd600160009054906101000a900473ffffffffffffffffffffffffffffffffffffffff1682604051808373ffffffffffffffffffffffffffffffffffffffff1673ffffffffffffffffffffffffffffffffffffffff1681526020018281526020019250505060405180910390a1600260009054906101000a900473ffffffffffffffffffffffffffffffffffffffff1673ffffffffffffffffffffffffffffffffffffffff166108fc60028381151561040057fe5b049081150290604051600060405180830381858888f1935050505015801561042c573d6000803e3d6000fd5b507fa27e6dbb19599b1ad50eff1ba2a549c8548a0ddd4e873795a7de7ada6b2f4ecd600260009054906101000a900473ffffffffffffffffffffffffffffffffffffffff1682604051808373ffffffffffffffffffffffffffffffffffffffff1673ffffffffffffffffffffffffffffffffffffffff1681526020018281526020019250505060405180910390a15050565b6000806104ca836104be565b905080915050919050565b6000809054906101000a900473ffffffffffffffffffffffffffffffffffffffff168156fea165627a7a7230582067400fe383d89d9d48dd2b90b079f3a33bf4f467c6d3631fbe0c17a9272e6c5d0029",
  "source": "pragma solidity ^0.5.0;\n\ncontract Splitter {\n\taddress payable public alice;\n\taddress payable public bob;\n\taddress payable public carol;\n\t\n\tevent transferSuccess(address receiver, uint amount); \n\n\tconstructor (address payable _alice, address payable _bob, address payable _carol) public payable {\n\t\talice = _alice;\n\t\tbob = _bob;\n\t\tcarol = _carol;\n\t}\n\n\tmodifier onlyAlice() {\n\t\trequire (msg.sender == alice);\n\t\t_;\n\t}\n\n\tfunction getBalance (address account) public view returns(uint) {\n\t\tuint balance = getBalance(account);\n\t\treturn balance; \n\t}\n\t\n    function splitterOfEth(uint aliceEther) public payable onlyAlice() {\n        uint splitEther = aliceEther / 2;\n        bob.transfer(splitEther);\n        emit transferSuccess (bob, splitEther); \n        carol.transfer(splitEther / 2);\n        emit transferSuccess (carol, splitEther); \n    }\n}",
  "sourcePath": "/home/vagrant/DAPPS/Splitter/contracts/Splitter.sol",
  "compiler": {
    "name": "solc",
    "version": "0.5.0+commit.1d4f565a.Emscripten.clang"
  },
  "schemaVersion": "3.0.3",
  "updatedAt": "2019-04-13T15:25:17.354Z",
  "devdoc": {
    "methods": {}
  },
  "userdoc": {
    "methods": {}
  }
}